:020000040800F2
:100000008006002081010008C7030008C50300081E
:1000100000000000000000000000000000000000E0
:10002000000000000000000000000000CB030008FA
:100030000000000000000000C9030008CD03000814
:100040009301000893010008930100089301000840
:10005000930100082502000893010008930100089D
:100060009301000893010008930100089301000820
:100070009301000893010008930100089301000810
:100080009301000893010008930100089301000800
:1000900093010008930100089301000893010008F0
:1000A00093010008930100089301000893010008E0
:1000B00093010008930100089301000893010008D0
:1000C00000F002F800F04CF812A030C808382418EC
:1000D0002D18AC4201D100F043F80FCCA246AB463C
:1000E0000CA730CF2D1B083F3F197C427F1E544484
:1000F0002D090426F441641EAC4201D300F030F80F
:100100000126334200D0FB1A3343984754465D46DC
:10011000DFE70000BC050000DC050000103A02D358
:1001200078C878C1FAD8520701D330C830C101D598
:1001300004680C6070470000704700000023002432
:1001400000250026103A01D378C1FBD8520700D30E
:1001500030C100D50B6070471FB51FBD10B510BD75
:1001600000F02DF81146FFF7F7FF00F051F900F00D
:1001700045F803B4FFF7F2FF03BC00F04BF80000B2
:100180000748804707480047FEE7FEE7FEE7FEE72F
:10019000FEE7FEE704480549054A064B70470000A4
:1001A0000D040008C1000008800000208006002027
:1001B000800200208002002070477047704775461B
:1001C00000F024F8AE46050069465346C008C0005A
:1001D000854618B020B5FFF7DDFF60BCB6460026A7
:1001E0000027C0C5C0C5C0C5C0C5C0C5C0C5C0C545
:1001F000C0C5403D490849008D46704710B50446CA
:10020000C046C0462046FFF7B4FF10BD0048704707
:100210001000002001491820ABBEFEE726000200B6
:100220007047000010B503200102774802684A4079
:100230000260144A002313601468134B9C4217D2C7
:100240001468641C146014689C4211D21468641C05
:10025000146014689C420BD21468641C1460146807
:100260009C4205D21468641C146014689C42E7D355
:1002700002684A4002600548016801220A430260A0
:1002800010BDC0467400002060E316001404014055
:10029000B0B5044600F00CF80546601C02D02248B8
:1002A0000078041900F004F8401BA042FAD3B0BD56
:1002B000054800687047C0461B48007802490A6834
:1002C000101808607047C0467800002080B50648C6
:1002D000016810220A430260032000F007F800F0D2
:1002E00027F8002080BDC0460020024070B50446BB
:1002F0007D20C0000C4E317800F0EEF801460B482E
:10030000006800F0E9F800F045F80125032C08D852
:10031000002806D10025E84321462A4600F01EF8B1
:100320007460284670BDC046000000200800002010
:1003300082B009480168012211430160016811403F
:1003400001910199110742680A43426040680840E0
:100350000090009802B0704718100240002805D4A1
:100360000322034693430A4A9A1803E00C220240F0
:10037000064BD2188007C00E8901C9B28140FF2305
:1003800083401068984308431060704714ED00E004
:1003900000E400E0401E010E01D001207047074933
:1003A000074A50604B4803680B40032189075918DE
:1003B000016000209060072111607047FFFFFF007F
:1003C00010E000E0FEE7FEE77047704780B50B489D
:1003D0000168491C01600A4848430321C841094992
:1003E000884202D9FFF768FF80BD07480168802274
:1003F0004A400260FFF760FF80BDC04670000020E9
:10040000295C8FC214AE47011408004870470000F1
:10041000FFF75CFF0520400427490A6802430A6091
:100420004A68012002434A6055210903234C22688F
:100430000A4322600F22910163688B436360A168C5
:100440001F4B1940A160E1681940E1600321CB43D3
:100450000925ED062E681E402E60AE681E40AE6077
:10046000EB6802261E43EE60164B1D6895431D6027
:10047000154A936803439360136803431360134A58
:1004800020231360FF221302114D2E689E4389031F
:100490007118296011060F4A13688B43C107591858
:1004A00011604502A56160694021414061612846B3
:1004B0008A30FFF7EDFEF6E714100240000800480E
:1004C000FF0FF0FF080001400004014000E100E0E0
:1004D00004E400E020ED00E043088B421AD3002240
:1004E00003098B4279D3030A8B425ED3030B8B4201
:1004F00042D3030C8B4227D30902FF2212BA030C0A
:100500008B4202D31212090203D0030B8B4233D366
:100510001AE0D3E0411A8041401C704703460B4368
:1005200071D443088B42F5D3002203098B4254D384
:10053000030A8B4239D3030B8B421DD3030C8B422E
:1005400002D394466EE0090AC30B8B4201D3CB035E
:10055000C01A5241830B8B4201D38B03C01A524104
:10056000430B8B4201D34B03C01A5241030B8B4206
:1005700001D30B03C01A5241C30A8B4201D3CB02F1
:10058000C01A5241830A8B4201D38B02C01A5241D6
:10059000430A8B4201D34B02C01A5241030A8B42D9
:1005A00001D30B02C01A5241CDD2C3098B4201D3F1
:1005B000CB01C01A524183098B4201D38B01C01A6F
:1005C000524143098B4201D34B01C01A52410309E6
:1005D0008B4201D30B01C01A5241C3088B4201D395
:1005E000CB00C01A524183088B4201D38B00C01A42
:1005F000524143088B4201D34B00C01A5241411A69
:10060000524110007047CA0F00D04942031000D376
:100610004042534000229C4603098B422DD3030ADB
:100620008B4212D38901FC2212BA030A8B420CD3EB
:10063000890192118B4208D3890192118B4204D314
:10064000890137D0921100E08909C3098B4201D397
:10065000CB01C01A524183098B4201D38B01C01ACE
:10066000524143098B4201D34B01C01A5241030945
:100670008B4201D30B01C01A5241C3088B4201D3F4
:10068000CB00C01A524183088B4201D38B00C01AA1
:100690005241D9D243088B4201D34B00C01A524178
:1006A000411A00D201465241104663465B1000D306
:1006B0004042704763465B1000D3404201B50021C1
:1006C000004201D0C9430846C046C04602BD0000F2
:1006D000F006000800000020100000001C010008C7
:1006E0000007000810000020700600003C01000810
:1006F000010000000400000000127A000000000069
:04000005080000C12E
:00000001FF
