:020000040800F2
:10000000C80600208101000837120008A90E000868
:1000100000000000000000000000000000000000E0
:100020000000000000000000000000003B1200087B
:100030000000000000000000391200083D12000816
:100040009301000893010008930100089301000840
:100050009301000893010008930100089301000830
:100060009301000893010008930100089301000820
:100070009301000893010008930100089301000810
:100080009301000893010008930100089301000800
:1000900093010008930100089301000893010008F0
:1000A00093010008930100089301000893010008E0
:1000B00093010008930100089301000893010008D0
:1000C00000F002F800F04CF812A030C808382418EC
:1000D0002D18AC4201D100F043F80FCCA246AB463C
:1000E0000CA730CF2D1B083F3F197C427F1E544484
:1000F0002D090426F441641EAC4201D300F030F80F
:100100000126334200D0FB1A3343984754465D46DC
:10011000DFE700000417000024170000103A02D3A4
:1001200078C878C1FAD8520701D330C830C101D598
:1001300004680C6070470000704700000023002432
:1001400000250026103A01D378C1FBD8520700D30E
:1001500030C100D50B6070471FB51FBD10B510BD75
:1001600000F04DF81146FFF7F7FF01F06DF800F0D1
:1001700065F803B4FFF7F2FF03BC00F06BF8000072
:100180000748804707480047FEE7FEE7FEE7FEE72F
:10019000FEE7FEE704480549054A064B70470000A4
:1001A00045120008C1000008C8000020C806002051
:1001B000C8020020C802002001E004C0091F042971
:1001C000FBD28B0701D50280801CC90700D00270CA
:1001D000704700290BD0C30702D00270401C491E93
:1001E000022904D3830702D50280801C891EE3E71D
:1001F0000022EEE70022DFE7704770477047754640
:1002000000F024F8AE46050069465346C008C00019
:10021000854618B020B5FFF7BDFF60BCB646002686
:100220000027C0C5C0C5C0C5C0C5C0C5C0C5C0C504
:10023000C0C5403D490849008D46704710B5044689
:10024000C046C0462046FFF794FF10BD00487047E7
:100250001000002001491820ABBEFEE72600020076
:1002600070470000B0B5044600F00EF80546601C6B
:1002700002D004480078041900F006F8401BA042A0
:10028000FAD3B0BD00000020014800687047C046A6
:10029000C4000020F0B581B0002822D004460546F5
:1002A00040356878002804D100202870204600F0EE
:1002B00063FA242068702068026801218A43026082
:1002C0000F2212066368934303618368194A13403F
:1002D0008360A368E668012E06D1CE0333438360B2
:1002E0000AE0012001B0F0BD2127BF023B4383603B
:1002F000022E01D1CB02436043680F4E1E4346607D
:10030000C3681340C360226963691343A269120280
:100310001A43C260E269236A1343036002680A4316
:10032000026000206064202169702063A87001B021
:10033000F0BDC046FF7FFFFF00800002F0B589B02E
:1003400004460646403670780225202847D10E9F85
:10035000002F41D00F9800283ED00590307801281A
:100360003DD0039302920691012007903070FFF771
:100370008BFF0346206881690904089332D41099E1
:100380000791222171704021B170002204926264B1
:100390000599618567626263F149069A0A40039F85
:1003A000F9B20904069289184268EE4D2A4089186C
:1003B00001256A0389184160204607991A4600F012
:1003C000E7FE0028049843D12068012F26D1029926
:1003D000C9B28162089F31E0012568026064284645
:1003E00009B0F0BD0798C50302E081692942C6D073
:1003F000FFF74AFF089BC11A20681A29F5D38169C3
:100400002942F2D0606C20210843606471700020A2
:100410003070B070079D284609B0F0BD0299090AF6
:10042000816220460799089F3A4600F0B1FE0028F5
:1004300004980DD120680299C9B28162079B009788
:1004400040210022204600F0F1FD0028049803D04E
:100450003070284609B0F0BD608D000A07D02068D2
:100460004168C04A1140021DFF20394B09E0608DF0
:1004700022685368BB490B40C1B209041943121DDD
:10048000324B1943069B194311602085089A079B3C
:1004900014E0608D208521684A68B54B1A40C0B2CF
:1004A0000004104301225206091D069B1043184305
:1004B0000860608D0028089A079B31D000920421C3
:1004C000002720463A4600F0B1FD002887D1606A37
:1004D0002168496A0170608D401E6085606A401C19
:1004E0006062208D401E2085618D0029E1D00004CE
:1004F000DFD108980090802100222046079B00F061
:1005000095FD002800D06AE7608D000AC1D0FF2069
:10051000208521684868964A1040091D934AC4E71F
:100520002046194600F0F1FD002800D057E720686A
:100530002021C16142688F4B134043607170377056
:10054000B7703D46284609B0F0BDC0460024000201
:100550000024FF01F0B589B00546064640367478A0
:100560000220202C09D10E9C002C08D00F9F002FB8
:1005700005D006973778012F06D109B0F0BD0120CC
:100580004102696409B0F0BD039302920591012014
:1005900004903070FFF778FE08902868816909049C
:1005A00045D410990791212171704021B170002725
:1005B0006F64069969856C626F636949059A0A40A0
:1005C0000399C9B20904059289184268654B134022
:1005D000C918654A8918416028460799089C22462F
:1005E00000F0D6FD00281ED106972868039901293E
:1005F0000BD00299090A816228460799224600F029
:10060000C7FD0028069F0ED128680299C9B28162F1
:10061000079B0094802100242846224600F006FD16
:100620000028069F1ED03770049809B0F0BD0498CA
:10063000C70302E081693942B3D0FFF725FE08996C
:10064000411A28681A29F5D381693942F2D0686CB9
:10065000202108436864717000203070B0700498E5
:1006600009B0F0BD0394059C012004904206688DFA
:10067000000A3E4B3E49069207D028680A46416868
:1006800017461140021DFF200DE0688D2B68029374
:100690005B680F460B40C1B209041943029B1B1D46
:1006A00002931346029A1943214311602885079B40
:1006B00010E0688D288529684A683A40C0B2000475
:1006C0001043091D069A079B104320430860688D5C
:1006D00000282FD028461946089A00F059FD002816
:1006E00025D12868696A0A788262688D401E68850B
:1006F000481C6862288D401E2885698D0029079B4B
:10070000E5D00004E3D1089800908021002228461B
:1007100000F08CFC00280AD1688D000AC9D0FF20A7
:100720002885296848683840091D104ACBE7049895
:1007300009B0F0BD28461946089A00F0E6FC0028EA
:10074000049800D019E728682021C1614268094B4C
:1007500013404360717003983070B07009B0F0BD01
:10076000FF030000009800FC002000010000FF01D2
:10077000009C00FC00E800FE704700001A4800786A
:1007800002490A68101808607047C046C40000207B
:1007900080B58548016810220A430260032000F0FA
:1007A00005F800F023F8002080BDC04670B504466F
:1007B0007D20C0000C4E317800F01AFF01468248BF
:1007C000006800F015FF00F055FB0125032C08D848
:1007D000002806D10025E84321462A4600F01CF8EF
:1007E0007460284670BDC0460000002082B00948F1
:1007F00001680122114301600168114001910199D2
:10080000110742680A43426040680840009000981F
:1008100002B0704718100240002805D40322034696
:1008200093430A4A9A1803E00C220240064BD2185E
:100830008007C00E8901C9B28140FF238340106840
:10084000984308431060704714ED00E000E400E0B6
:10085000F0B581B0002846D00446534A1368012001
:1008600003408B4208D213680126B3430B43136045
:10087000126832408A4237D1009121688A074B4B77
:1008800010D54A0706D5072212021B681343474AB0
:100890001360464B1A68F0239A43A3681343434AF4
:1008A0001360424BC90722D13F49086801263040F6
:1008B000009A904205D90868B04308600868C007EC
:1008C00012D12078400706D507200002196881431D
:1008D000E068084318601A681007810F354802293C
:1008E00012D2044650E00126304601B0F0BD6168E6
:1008F00003290DD01A1F02290FD0012912D1126825
:1009000092030646F0D511E0032926D12A4C3BE09C
:100910001A6B92030646E7D508E012689201064674
:10092000E2D503E0126892070646DDD51868032673
:10093000B04308431860FFF7A7FC07461C4D1B4B4C
:1009400018680C210140606880008142ACD0FFF73C
:100950009BFCC01BA842F2D9C6E70321CB03134975
:10096000896A0F240C401549095D94021A40240F2E
:10097000134D2C5D9A4202D033049A4200E00E4897
:1009800000F036FE4443094B18680006000F0D497D
:10099000085CC4400C4804600320FFF707FF0026F2
:1009A000304601B0F0BDC0460020024004100240B5
:1009B0008813000000127A00006CDC0206180008A0
:1009C000F6170008E617000808000020F0B587B009
:1009D00004460120002C00D145E204902078C00795
:1009E000F94E05940CD071680C200140042900D008
:1009F00090E03068800303D56068002800D120E1D2
:100A00002078800721D570680007800F0ED07068AD
:100A10000C210140082900D09DE00320C00371682B
:100A200001400120C003814200D094E0306880077B
:100A3000059C03D5E068012800D002E13068F82168
:100A400088432169C90001433160059C2078000773
:100A500024D42078400737D42078C00600D4D3E0CF
:100A600005984069411D00D1C2E0012800D030E165
:100A7000706B042101437163706B01210143716349
:100A8000FFF702FC0546706B800700D5B4E0FFF766
:100A9000FBFB411B03200229F5D9E4E1706AE169FF
:100AA000002900D181E0012108437062FFF7ECFBCF
:100AB0000546706A8007CCD4FFF7E6FB401B02288E
:100AC000F7D9032007B0F0BD012003900107F069BA
:100AD0000840029006D1F0690843F061F0690840CF
:100AE000069006980191E14F3868C0054AD40398F2
:100AF0000402386820433860FFF7C6FB05463868B3
:100B000020423FD1FFF7C0FB401B6428F7D90320E8
:100B100007B0F0BD71680140082908D10320C00367
:100B20007168014001200004814200D161E76168E1
:100B300001204704002900D117E1052900D12BE14C
:100B4000012900D12CE1010432688A43326081041A
:100B50003068884327E13068059CE168002936D079
:100B6000012108433060FFF78FFB0546306880079E
:100B700000D563E7FFF788FB401B0228F6D9032066
:100B800007B0F0BD05988068002800D1B6E00528C0
:100B900000D1C9E0012800D1CAE0306A0399884336
:100BA0003062306A04218843C5E0012188437062C5
:100BB000FFF76AFB0546706A800700D449E7FFF734
:100BC00063FB401B0228F6D9032007B0F0BD0121CA
:100BD00088433060FFF758FB05463068800700D433
:100BE00033E7FFF751FB411B03200229F5D93AE116
:100BF000706B042188437063706BF82188430599FA
:100C00008969C900014371630598007880060BD596
:100C100071680C2001400C2939D1706B800303D519
:100C20000598006A01280CD10598446A002C00D16F
:100C3000E1E070680C210140082905D1012C00D0A9
:100C4000C4E0049807B0F0BD0120020631680492A8
:100C5000914331604706FFF717FB0546022C0BD185
:100C6000049C3068384200D1DEE0FFF70DFB411BE9
:100C700003200229F5D9F6E03068384200D1BAE005
:100C8000FFF702FB411B03200229F5D9EBE0716855
:100C90000140082905D10320C00371680140814249
:100CA000BBD0706B0599096A002900D1A9E0012128
:100CB0000A04104370634C04FFF7E6FA0546706BB4
:100CC0002042B1D1FFF7E0FA411B03200229F6D9F7
:100CD000C9E0706B042101437163706B012188438B
:100CE0007063FFF7D1FA0546706B80078CD5FFF76C
:100CF000CBFA411B03200229F6D9B4E0306A0399EC
:100D000088433062306A042188433062584CFFF7D0
:100D1000BBFA0546306A80071DD5FFF7B5FA411BBF
:100D20000320A142F6D99EE0306A042101433162DA
:100D3000306A0399084330624D4CFFF7A5FA054627
:100D4000306A800707D4FFF79FFA401BA042F7D90B
:100D5000032007B0F0BD02980028059C00D07BE678
:100D6000F06901998843F06176E6010432688A43AC
:100D700032608004316881433160FFF785FA0546AF
:100D8000059C3068384200D13AE6FFF77DFA411BF6
:100D900003206429F5D966E0810432680A43326091
:100DA0000104306808433060FFF76EFA054630688A
:100DB000384200D024E6FFF767FA401B6428F6D9D2
:100DC000032007B0F0BDC046001002400320C2035C
:100DD00070680240F16A059CA36A9A42049D0DD195
:100DE0000F221140236B994208D191040840E16A17
:100DF0008842284637D1002007B0F0BD284607B00A
:100E0000F0BD01210A04904370634C04FFF73CFAE3
:100E10000546706B204200D106E7FFF735FA411B0B
:100E200003200229F5D91EE0F06A0F218843059AB4
:100E3000116B0143F1627B20C00371688143D06A6A
:100E40000843916A01437160306820433060FFF7C6
:100E50001BFA044630683842CDD1FFF715FA011B62
:100E600003200229F6D907B0F0BDC046007000404B
:100E700088130000401E010E01D001207047074971
:100E8000074A5060074803680B4003218907591837
:100E9000016000209060072111607047FFFFFF0094
:100EA00010E000E020ED00E0FEE70000F0B585B0C6
:100EB0000E4604464030049020688169C90606D475
:100EC00000210F4601258269D30545D448E0102151
:100ED000C1618169890637D4711C32D01546012061
:100EE000002E6CD186030390C7030297FFF7CCF95D
:100EF000206842680499897883693B4209D032406E
:100F000007D1202905D0416831434160FFF7BCF982
:100F1000054620688169890605D4FFF7B5F9401BAD
:100F20001A28F6D376E081698906029FDED50BE0A8
:100F30008169890608D48169890605D48169890691
:100F400002D481698906F3D52021C16101270421DA
:100F500001258269D30503D52B02C36129432F469E
:100F60006B02560506D41A420AD1002F0BD100207D
:100F700005B0F0BDAD02C561082529431A4202D073
:100F8000C361022211438269920701D50022826265
:100F90008269D20703D182690123134383614268C6
:100FA000214B13404360606C084360642020049927
:100FB0004870002008708870012005B0F0BD8103E2
:100FC00002910390C0030190019F02E081698906AC
:100FD000BAD4FFF759F9411B2068B142F6D94268EB
:100FE0000499897883693B420BD0029B1A4008D14F
:100FF000202906D04168029A11434160FFF744F965
:101000000546206881698906E0D4FFF73DF9401B59
:101010001A28F6D3206881692421039F012582695B
:10102000D30599D49CE7C04600E800FEF0B583B034
:101030001C4615460E460746036899693140891BD0
:101040004A424A410020AA4234D1611C2BD0002CD4
:1010500032D10446FFF718F9386881693140891B9D
:101060004A424A41AA4240D080693040801B4142F6
:101070004141A942EED0204603B0F0BD996931400C
:10108000891B4A424A41AA4214D199693140891BBD
:101090004A424A41AA420DD199693140891B4A42CC
:1010A0004A41AA4206D199693140891B4A424A41C4
:1010B000AA42E3D003B0F0BD01900898029006E088
:1010C00080693040801B41424141A9421AD1FFF75B
:1010D000DBF80299411A3868A142F1D9816931409F
:1010E000891B4A424A41AA42EAD138464030796CCB
:1010F0002022114379644270002101708170012027
:1011000003B0F0BD019803B0F0BDF0B581B0054665
:10111000006880690024800622D416460F46002904
:1011200003D129E0806980061AD428463946324620
:10113000FFF7BCFE002827D1FFF7A6F8811B28681F
:10114000B942EFD981698906ECD428464030696CF0
:1011500020221143696442700021017081700124D2
:10116000204601B0F0BDFFF78FF828688169890635
:10117000EBD580698006F3D4002428462146324608
:10118000FFF794FE0028EED00124204601B0F0BD08
:10119000F0B581B00546006880690024800716D448
:1011A00016460F46481C19D0002F26D10024284689
:1011B00021463246FFF77AFE002838D1FFF764F85F
:1011C00028688169890728D580698007EED520467F
:1011D00001B0F0BD286880698007F8D40024E1439D
:1011E00028463246FFF762FE0028F3D0012420464D
:1011F00001B0F0BD80698007E9D4284639463246FF
:10120000FFF754FE002812D1FFF73EF8811B286833
:10121000B942EFD981698907ECD428464030696C1E
:101220002022114369644270002101708170012401
:10123000204601B0F0BDFEE77047704780B5FFF76C
:101240009DFA80BD70470000A0B0FFF7A1FA11AE73
:10125000301D3021FEF7CEFF00241A941020159087
:1012600001251495022011903046FFF7AFFB0028AE
:1012700003D0EFF3108072B6FEE710940F940E9433
:1012800007200D900DA82146FFF7E2FA002803D0B1
:10129000EFF3108072B6FEE70694A804C84C21460E
:1012A00008390A6802430A60E8040A6802430A60CF
:1012B000032188050B46C3490A6882430A60E80592
:1012C0000A6802430A60E8024A6802434A60486AC0
:1012D000BD4A1040486228034A6A02434A6298069F
:1012E0000A6882430A60E8060A6802430A606803E3
:1012F0004A6802434A600F221005164607924A6A5E
:1013000082434A6205200A9000054A6A02434A6203
:10131000180709930A6882430A6028070A6802438B
:101320000A60AA0348689043486088690B9210439A
:101330008861A64A1746143F386898433860386871
:1013400028433860104610380168A943016051688D
:1013500029435160A90522680A4322609C490A4634
:10136000083A0C959B4D15600A46183A15680C9C76
:10137000254315600A9B1A033D6815433D600268CA
:10138000C025AA4302603203904E35460C3D2C68BE
:1013900014432C603246083A14688B4E3440146073
:1013A0001C043E6826433E60079F884E099B1B0233
:1013B00004689C43046038042B6803432B600C9D35
:1013C0001368834313602A023068089250403060EB
:1013D0006A023068059250403060306840220492C2
:1013E0005040306032688020424032600B46143BEF
:1013F000794A1A600C681222144208D10C6814420F
:1014000005D10C68144202D10C681442F2D00A686B
:10141000D20603D53268049C624032600F610A68CC
:10142000520608D40A68520605D40A68520602D445
:101430000A685206F3D5694A1A600C6814221442ED
:1014400008D10C68144205D10C68144202D10C6812
:101450001442F2D00A68D20603D53268089C624072
:1014600032600A68520608D40A68520605D40A682F
:10147000520602D40A685206F3D5C968C9B2D32904
:1014800000D0059831684140316018680B990843D5
:10149000186011AC382020707D200A90C00009909F
:1014A0000094019502904E4ED62720220B92304692
:1014B00039462B46FFF74EF8082020700094099C0F
:1014C00001950294304639460B9A2B46FFF742F8B5
:1014D000069AF2613262434843493160311D25C1A9
:1014E000326172613046FEF7D5FE002803D0EFF37B
:1014F000108072B6FEE76805314A11680143116039
:1015000011680140119111980A988700079705E02A
:101510001046000458606420FEF7A4FE0294019572
:1015200011AE0096D62728222D4839462B46FEF7C5
:1015300005FF029401950DA80090292228483946FC
:101540002B46FEF7FBFE30780B900D980A90029424
:101550000C9801901FAE00962A22214D284639464C
:101560000C9BFEF7EBFE02940C9801901EA80090D5
:101570002B22284639460C9BFEF7E0FE0A98000213
:101580000B9940180C9D00B218498842294600DB8F
:101590000699079FB842089800DCC80131781E9A66
:1015A0001202511809B2114A9142084B024601DA5F
:1015B000049C2243099CB942AADD05990843A8E787
:1015C0001C10024000040048FF0FFFFF14080048F1
:1015D00018580040130F4210D2200100D2240100FD
:1015E00070000020380F3000005400400CFEFFFF58
:1015F00043088B421AD3002203098B4279D3030A92
:101600008B425ED3030B8B4242D3030C8B4227D316
:101610000902FF2212BA030C8B4202D312120902F2
:1016200003D0030B8B4233D31AE0D3E0411A80413D
:10163000401C704703460B4371D443088B42F5D3DB
:10164000002203098B4254D3030A8B4239D3030B84
:101650008B421DD3030C8B4202D394466EE0090AE1
:10166000C30B8B4201D3CB03C01A5241830B8B4275
:1016700001D38B03C01A5241430B8B4201D34B035E
:10168000C01A5241030B8B4201D30B03C01A5241C3
:10169000C30A8B4201D3CB02C01A5241830A8B4248
:1016A00001D38B02C01A5241430A8B4201D34B0231
:1016B000C01A5241030A8B4201D30B02C01A524195
:1016C000CDD2C3098B4201D3CB01C01A5241830949
:1016D0008B4201D38B01C01A524143098B4201D383
:1016E0004B01C01A524103098B4201D30B01C01AAE
:1016F0005241C3088B4201D3CB00C01A5241830828
:101700008B4201D38B00C01A524143088B4201D354
:101710004B00C01A5241411A524110007047CA0F83
:1017200000D04942031000D34042534000229C465F
:1017300003098B422DD3030A8B4212D38901FC2269
:1017400012BA030A8B420CD3890192118B4208D33F
:10175000890192118B4204D3890137D0921100E0A4
:101760008909C3098B4201D3CB01C01A52418309B5
:101770008B4201D38B01C01A524143098B4201D3E2
:101780004B01C01A524103098B4201D30B01C01A0D
:101790005241C3088B4201D3CB00C01A5241830887
:1017A0008B4201D38B00C01A5241D9D243088B42DD
:1017B00001D34B00C01A5241411A00D20146524196
:1017C000104663465B1000D34042704763465B108F
:1017D00000D3404201B50021004201D0C943084670
:1017E000C046C04602BD000000000000000001022B
:1017F00003040607080902030405060708090A0B83
:101800000C0D0E0F10100102030405060708090A4B
:101810000B0C0D0E0F1000003818000800000020FF
:10182000100000001C0100084818000810000020EB
:10183000B80600003C0100080100000004000000A0
:0818400000127A000000000014
:04000005080000C12E
:00000001FF
