:020000040800F2
:100000007806002081010008C3040008C10400082C
:1000100000000000000000000000000000000000E0
:10002000000000000000000000000000C7040008FD
:100030000000000000000000C5040008C90400081A
:100040009301000893010008930100089301000840
:100050009301000893010008930100089301000830
:100060009301000893010008930100089301000820
:10007000930100089301000893010008D5040008CB
:100080009301000893010008930100089301000800
:1000900093010008930100089301000893010008F0
:1000A00093010008930100089301000893010008E0
:1000B00093010008930100089301000893010008D0
:1000C00000F002F800F04CF812A030C808382418EC
:1000D0002D18AC4201D100F043F80FCCA246AB463C
:1000E0000CA730CF2D1B083F3F197C427F1E544484
:1000F0002D090426F441641EAC4201D300F030F80F
:100100000126334200D0FB1A3343984754465D46DC
:10011000DFE70000FC0600001C070000103A02D3D5
:1001200078C878C1FAD8520701D330C830C101D598
:1001300004680C6070470000704700000023002432
:1001400000250026103A01D378C1FBD8520700D30E
:1001500030C100D50B6070471FB51FBD10B510BD75
:1001600000F02DF81146FFF7F7FF00F0C7F900F097
:1001700045F803B4FFF7F2FF03BC00F04BF80000B2
:100180000748804707480047FEE7FEE7FEE7FEE72F
:10019000FEE7FEE704480549054A064B70470000A4
:1001A000D1040008C1000008780000207806002073
:1001B000780200207802002070477047704775462B
:1001C00000F024F8AE46050069465346C008C0005A
:1001D000854618B020B5FFF7DDFF60BCB6460026A7
:1001E0000027C0C5C0C5C0C5C0C5C0C5C0C5C0C545
:1001F000C0C5403D490849008D46704710B50446CA
:10020000C046C0462046FFF7B4FF10BD0048704707
:100210001000002001491820ABBEFEE726000200B6
:1002200070470000F0B589B001900A68002A00D13B
:10023000B5E00D465B48019B834201D0052000E0FC
:1002400004201721C9065918890A9B0559180091DD
:10025000042900D3009000231C461F4607950AE09E
:10026000114331607F1C2A681046F8401B1DA41CF6
:10027000002800D193E001260396BE403240F1D021
:100280000292069303200146A140C9436A681546BD
:1002900005406B1E012B059213D8049101998868C3
:1002A000049B1840079BDB68A34003438B60D00688
:1002B000C00FB8404B68B3430E46049903437360C4
:1002C00006E0032D019E03D10546069B029A20E01D
:1002D000F0680840079B9B68A3400343F360022D2E
:1002E000069B029A15D11C20184004910F218140D1
:1002F000FB089B00F3181D6A8D43079E31698140FE
:10030000294319620499069B7068019E0325059094
:100310000540A540306808402843306005988003B8
:10032000800F079D9ED04A490868039D28430860B6
:100330000868284008900C2018400F2181400323B2
:100340003D469D43089B194EAB598B430099814014
:100350001943A951079D144EB1686868C3020BD5B3
:100360001143B160F16883020BD49143F16071686D
:1003700083030BD491430AE09143B160F168830297
:10038000F3D51143F16071688303F3D51143069BE4
:1003900071603168C00300D562E7914361E709B03D
:1003A000F0BDC046001000480004014008000140B4
:1003B0001B48007802490A68101808607047C04658
:1003C0007000002080B50648016810220A430260D0
:1003D000032000F007F800F027F8002080BDC04699
:1003E0000020024070B504467D20C0000C4E3178DC
:1003F00000F012F901460B48006800F00DF900F01A
:1004000045F80125032C08D8002806D10025E8432B
:1004100021462A4600F01EF87460284670BDC0468A
:10042000000000200800002082B009480168012275
:10043000114301600168114001910199110742685F
:100440000A434260406808400090009802B070473C
:1004500018100240002805D40322034693430A4A99
:100460009A1803E00C220240064BD2188007C00EF7
:100470008901C9B28140FF23834010689843084333
:100480001060704714ED00E000E400E0401E010E33
:1004900001D0012070470749074A506007480368A8
:1004A0000B40032189075918016000209060072143
:1004B00011607047FFFFFF0010E000E020ED00E05A
:1004C000FEE7FEE77047704780B5FFF771FF80BD1C
:1004D0007047000007480168C90709D003210902D5
:1004E000054A13684B401360016801229143016083
:1004F0007047C04610000040140800488CB0FFF759
:1005000061FF0125E904354802680A430260026878
:100510000A40079207990521490402680A430260CC
:10052000416829434160816829438160A8072C49BB
:1005300081627D210191C162C1682943C160016866
:10054000294301602802274C616901436161E80386
:100550002549086025A007A90A4688C888C2C8C8D6
:10056000C8C22046FFF75EFE25A002A90A4648C879
:1005700048C2C8C8C8C22046FFF754FE0020206207
:100580002448092101610199C900416101680322E0
:1005900091430160110203688B430360016870237B
:1005A0000B430360510302680A430260016808229A
:1005B0000A430260E90202680A4302608168294333
:1005C0008160816810220A438260AF218900C16185
:1005D00001621838016829430160FEE714100240E7
:1005E0003F1F00000008004800E100E00003000099
:1005F00001000000000000000000000000000000FA
:10060000C000000002000000000000000000000028
:10061000000000001804004043088B421AD3002257
:1006200003098B4279D3030A8B425ED3030B8B42BF
:1006300042D3030C8B4227D30902FF2212BA030CC8
:100640008B4202D31212090203D0030B8B4233D325
:100650001AE0D3E0411A8041401C704703460B4327
:1006600071D443088B42F5D3002203098B4254D343
:10067000030A8B4239D3030B8B421DD3030C8B42ED
:1006800002D394466EE0090AC30B8B4201D3CB031D
:10069000C01A5241830B8B4201D38B03C01A5241C3
:1006A000430B8B4201D34B03C01A5241030B8B42C5
:1006B00001D30B03C01A5241C30A8B4201D3CB02B0
:1006C000C01A5241830A8B4201D38B02C01A524195
:1006D000430A8B4201D34B02C01A5241030A8B4298
:1006E00001D30B02C01A5241CDD2C3098B4201D3B0
:1006F000CB01C01A524183098B4201D38B01C01A2E
:10070000524143098B4201D34B01C01A52410309A4
:100710008B4201D30B01C01A5241C3088B4201D353
:10072000CB00C01A524183088B4201D38B00C01A00
:10073000524143088B4201D34B00C01A5241411A27
:10074000524110007047CA0F00D04942031000D335
:100750004042534000229C4603098B422DD3030A9A
:100760008B4212D38901FC2212BA030A8B420CD3AA
:10077000890192118B4208D3890192118B4204D3D3
:10078000890137D0921100E08909C3098B4201D356
:10079000CB01C01A524183098B4201D38B01C01A8D
:1007A000524143098B4201D34B01C01A5241030904
:1007B0008B4201D30B01C01A5241C3088B4201D3B3
:1007C000CB00C01A524183088B4201D38B00C01A60
:1007D0005241D9D243088B4201D34B00C01A524137
:1007E000411A00D201465241104663465B1000D3C5
:1007F0004042704763465B1000D3404201B5002180
:10080000004201D0C9430846C046C04602BD0000B0
:100810003008000800000020100000001C01000843
:100820004008000810000020680600003C01000895
:10083000010000000400000000127A000000000027
:04000005080000C12E
:00000001FF
