:020000040800F2
:100000007806002081010008BB090008B909000832
:1000100000000000000000000000000000000000E0
:10002000000000000000000000000000BF09000800
:100030000000000000000000BD090008C109000820
:100040009301000893010008930100089301000840
:100050009301000893010008930100089301000830
:100060009301000893010008930100089301000820
:100070009301000893010008930100089301000810
:100080009301000893010008930100089301000800
:1000900093010008930100089301000893010008F0
:1000A00093010008930100089301000893010008E0
:1000B00093010008930100089301000893010008D0
:1000C00000F002F800F04CF812A030C808382418EC
:1000D0002D18AC4201D100F043F80FCCA246AB463C
:1000E0000CA730CF2D1B083F3F197C427F1E544484
:1000F0002D090426F441641EAC4201D300F030F80F
:100100000126334200D0FB1A3343984754465D46DC
:10011000DFE70000FC3000001C310000103A02D381
:1001200078C878C1FAD8520701D330C830C101D598
:1001300004680C6070470000704700000023002432
:1001400000250026103A01D378C1FBD8520700D30E
:1001500030C100D50B6070471FB51FBD10B510BD75
:1001600000F04DF81146FFF7F7FF00F02FFC00F00C
:1001700065F803B4FFF7F2FF03BC00F06BF8000072
:100180000748804707480047FEE7FEE7FEE7FEE72F
:10019000FEE7FEE704480549054A064B70470000A4
:1001A000C9090008C1000008780000207806002076
:1001B000780200207802002001E004C0091F042911
:1001C000FBD28B0701D50280801CC90700D00270CA
:1001D000704700290BD0C30702D00270401C491E93
:1001E000022904D3830702D50280801C891EE3E71D
:1001F0000022EEE70022DFE7704770477047754640
:1002000000F024F8AE46050069465346C008C00019
:10021000854618B020B5FFF7BDFF60BCB646002686
:100220000027C0C5C0C5C0C5C0C5C0C5C0C5C0C504
:10023000C0C5403D490849008D46704710B5044689
:10024000C046C0462046FFF794FF10BD00487047E7
:100250001000002001491820ABBEFEE72600020076
:1002600070470000B0B5044600F00CF80546601C6D
:1002700002D021480078041900F004F8401BA04285
:10028000FAD3B0BD054800687047C0461A480078E8
:1002900002490A68101808607047C04670000020C4
:1002A00080B58548016810220A430260032000F0EF
:1002B00005F800F023F8002080BDC04670B5044664
:1002C0007D20C0000C4E317802F07CFE0146824851
:1002D000006802F077FE00F055FB0125032C08D8DA
:1002E000002806D10025E84321462A4600F01CF8E4
:1002F0007460284670BDC0460000002082B00948E6
:1003000001680122114301600168114001910199C6
:10031000110742680A434260406808400090009814
:1003200002B0704718100240002805D4032203468B
:1003300093430A4A9A1803E00C220240064BD21853
:100340008007C00E8901C9B28140FF238340106835
:10035000984308431060704714ED00E000E400E0AB
:10036000F0B581B0002846D00446534A13680120F6
:1003700003408B4208D213680126B3430B4313603A
:10038000126832408A4237D1009121688A074B4B6C
:1003900010D54A0706D5072212021B681343474AA5
:1003A0001360464B1A68F0239A43A3681343434AE9
:1003B0001360424BC90722D13F49086801263040EB
:1003C000009A904205D90868B04308600868C007E1
:1003D00012D12078400706D5072000021968814312
:1003E000E068084318601A681007810F3548022931
:1003F00012D2044650E00126304601B0F0BD6168DB
:1004000003290DD01A1F02290FD0012912D1126819
:1004100092030646F0D511E0032926D12A4C3BE091
:100420001A6B92030646E7D508E012689201064669
:10043000E2D503E0126892070646DDD51868032668
:10044000B04308431860FFF71DFF07461C4D1B4BC8
:1004500018680C210140606880008142ACD0FFF731
:1004600011FFC01BA842F2D9C6E70321CB031349F1
:10047000896A0F240C401549095D94021A40240F23
:10048000134D2C5D9A4202D033049A4200E00E488C
:1004900002F098FD4443094B18680006000F0D490F
:1004A000085CC4400C4804600320FFF707FF0026E7
:1004B000304601B0F0BDC0460020024004100240AA
:1004C0008813000000127A00006CDC02DA310008A8
:1004D000CA310008BA31000808000020F0B587B022
:1004E00004460120002C00D145E204902078C0078A
:1004F000F94E05940CD071680C200140042900D0FD
:1005000090E03068800303D56068002800D120E1C6
:100510002078800721D570680007800F0ED07068A2
:100520000C210140082900D09DE00320C003716820
:1005300001400120C003814200D094E03068800770
:10054000059C03D5E068012800D002E13068F8215D
:1005500088432169C90001433160059C2078000768
:1005600024D42078400737D42078C00600D4D3E0C4
:1005700005984069411D00D1C2E0012800D030E15A
:10058000706B042101437163706B0121014371633E
:10059000FFF778FE0546706B800700D5B4E0FFF7E3
:1005A00071FE411B03200229F5D9E4E1706AE1697B
:1005B000002900D181E0012108437062FFF762FE4B
:1005C0000546706A8007CCD4FFF75CFE401B02280A
:1005D000F7D9032007B0F0BD012003900107F069AF
:1005E0000840029006D1F0690843F061F0690840C4
:1005F000069006980191E14F3868C0054AD40398E7
:100600000402386820433860FFF73CFE054638682E
:1006100020423FD1FFF736FE401B6428F7D9032064
:1006200007B0F0BD71680140082908D10320C0035C
:100630007168014001200004814200D161E76168D6
:1006400001204704002900D117E1052900D12BE141
:10065000012900D12CE1010432688A43326081040F
:100660003068884327E13068059CE168002936D06E
:10067000012108433060FFF705FE0546306880071A
:1006800000D563E7FFF7FEFD401B0228F6D90320E3
:1006900007B0F0BD05988068002800D1B6E00528B5
:1006A00000D1C9E0012800D1CAE0306A039988432B
:1006B0003062306A04218843C5E0012188437062BA
:1006C000FFF7E0FD0546706A800700D449E7FFF7B1
:1006D000D9FD401B0228F6D9032007B0F0BD012147
:1006E00088433060FFF7CEFD05463068800700D4B0
:1006F00033E7FFF7C7FD411B03200229F5D93AE193
:10070000706B042188437063706BF82188430599EE
:100710008969C900014371630598007880060BD58B
:1007200071680C2001400C2939D1706B800303D50E
:100730000598006A01280CD10598446A002C00D164
:10074000E1E070680C210140082905D1012C00D09E
:10075000C4E0049807B0F0BD01200206316804929D
:10076000914331604706FFF78DFD0546022C0BD102
:10077000049C3068384200D1DEE0FFF783FD411B66
:1007800003200229F5D9F6E03068384200D1BAE0FA
:10079000FFF778FD411B03200229F5D9EBE07168D2
:1007A0000140082905D10320C0037168014081423E
:1007B000BBD0706B0599096A002900D1A9E001211D
:1007C0000A04104370634C04FFF75CFD0546706B30
:1007D0002042B1D1FFF756FD411B03200229F6D973
:1007E000C9E0706B042101437163706B0121884380
:1007F0007063FFF747FD0546706B80078CD5FFF7E8
:1008000041FD411B03200229F6D9B4E0306A039967
:1008100088433062306A042188433062584CFFF7C5
:1008200031FD0546306A80071DD5FFF72BFD411BC2
:100830000320A142F6D99EE0306A042101433162CF
:10084000306A0399084330624D4CFFF71BFD0546A3
:10085000306A800707D4FFF715FD401BA042F7D987
:10086000032007B0F0BD02980028059C00D07BE66D
:10087000F06901998843F06176E6010432688A43A1
:1008800032608004316881433160FFF7FBFC05462C
:10089000059C3068384200D13AE6FFF7F3FC411B73
:1008A00003206429F5D966E0810432680A43326086
:1008B0000104306808433060FFF7E4FC0546306807
:1008C000384200D024E6FFF7DDFC401B6428F6D94F
:1008D000032007B0F0BDC046001002400320C20351
:1008E00070680240F16A059CA36A9A42049D0DD18A
:1008F0000F221140236B994208D191040840E16A0C
:100900008842284637D1002007B0F0BD284607B0FE
:10091000F0BD01210A04904370634C04FFF7B2FC60
:100920000546706B204200D106E7FFF7ABFC411B88
:1009300003200229F5D91EE0F06A0F218843059AA9
:10094000116B0143F1627B20C00371688143D06A5F
:100950000843916A01437160306820433060FFF7BB
:1009600091FC044630683842CDD1FFF78BFC011B67
:1009700003200229F6D907B0F0BDC0460070004040
:1009800088130000401E010E01D001207047074966
:10099000074A5060074803680B400321890759182C
:1009A000016000209060072111607047FFFFFF0089
:1009B00010E000E020ED00E0FEE7FEE77047704742
:1009C00080B5FFF763FC80BD7047000000B59DB0A7
:1009D000FFF766FC10AD281D3021FFF70BFC00244B
:1009E0001994102014900127139702201090284684
:1009F000FFF774FD002803D0EFF3108072B6FEE716
:100A00000F940E940D9407200C900CA82146FFF72C
:100A1000A7FC002803D0EFF3108072B6FEE7F904BC
:100A2000BD4802680A43026002680A401092109AA8
:100A300002680A430260B90482680A4382600521A1
:100A40000A030B91B54C2046143803681343036026
:100A500023462546103B1A68C024A2431A600F2281
:100A600016032C460C3C256835432560AB4D083DEC
:100A700006972F68B7432F600E0407683743076057
:100A8000032636021F68B7431F60130426681E43FF
:100A900026602C689C432C60069D2C029F490B68A5
:100AA000049463400B606C020B68039463400B601A
:100AB0000B684024029463400B600B68802401940F
:100AC00063400B600C4612020368934303600B996A
:100AD000490202680A430260FF200004E168814382
:100AE000E16011200004E1680143E1608C4F384669
:100AF000103845210A91016038461C380C210160EC
:100B00000168294301607D20C000059001E00A20B2
:100B1000B88138680006FCD50A20B8813968090612
:100B200008D43968090605D43968090602D4396839
:100B30000906F3D54321B9813968090608D4396813
:100B4000090605D43968090602D439680906F3D5BF
:100B50006D210891B9813968090608D439680906F8
:100B600005D43968090602D439680906F3D5642426
:100B7000BC813968090608D43968090605D4396882
:100B8000090602D439680906F3D53F23BB813968C9
:100B9000090608D43968090605D43968090602D45B
:100BA00039680906F3D50994B8813968890608D4EB
:100BB0003968890605D43968890602D439688906F6
:100BC000F3D539893A68120608D43A68120605D472
:100BD0003A68120602D43A681206F3D5B8813A6828
:100BE000120608D43A68120605D43A68120602D4EE
:100BF0003A681206F3D541220792BA813A68120682
:100C000008D43A68120605D43A68120602D43A6843
:100C10001206F3D563221646BA813A68120608D442
:100C20003A68120605D43A68120602D43A681206E7
:100C3000F3D57422BA813A68120608D43A681206CB
:100C400005D43A68120602D43A681206F3D569242C
:100C5000BC813A68120608D43A68120605D43A688C
:100C6000120602D43A681206F3D56F220B92BA81AB
:100C70003A68120608D43A68120605D43A68120691
:100C800002D43A681206F3D56E221546BA813A6844
:100C9000120608D43A68120605D43A68120602D43D
:100CA0003A681206F3D5BB813A68120608D43A684E
:100CB000120605D43A68120602D43A681206F3D531
:100CC000B8813A68920608D43A68920605D43A6820
:100CD000920602D43A689206F3D5DF2211404239D7
:100CE0003B89102900D975E14900C04679448988BB
:100CF00049008F4417006F016F016F016F012603D8
:100D00006F016F016F016F016F016F016F018F0440
:100D10006F016F010306C04614100240140800481A
:100D20001C480040D8B2302801D100F035FF3128EE
:100D3000A64B01D101F044F8322801D001F042F96C
:100D4000A34C2068019D68402060059E3046FFF757
:100D500089FA2068684020603046FFF783FA2068EF
:100D6000684020603046FFF77DFA206868402060C8
:100D70003046FFF777FA2068684020603046FFF77A
:100D800071FA2068684020603046FFF76BFA2068EF
:100D9000684020603046FFF765FA206868402060B0
:100DA0003046FFF75FFA2068684020603046FFF762
:100DB00059FA2068684020603046FFF753FA3868D7
:100DC000000608D43868000605D43868000602D446
:100DD00038680006F3D50A20B8813868000608D4C0
:100DE0003868000605D43868000602D43868000662
:100DF000F3D54220B8813868000608D43868000668
:100E000005D43868000602D438680006F3D54C20B3
:100E1000B8813968090608D43968090605D43968E3
:100E2000090602D439680906F3D55521B981396814
:100E3000090608D43968090605D43968090602D4B8
:100E400039680906F3D50A99B9813968090608D4C1
:100E50003968090605D43968090602D439680906D3
:100E6000F3D52021B9813A68120608D43A681206EF
:100E700005D43A68120602D43A681206F3D5B8814E
:100E80003A68120608D43A68120605D43A6812067F
:100E900002D43A681206F3D50A9ABA813A68120661
:100EA00008D43A68120605D43A68120602D43A68A1
:100EB0001206F3D54422BA813A68120608D43A6879
:100EC000120605D43A68120602D43A681206F3D51F
:100ED000B9813968090608D43968090605D4396822
:100EE000090602D439680906F3D55421B981396855
:100EF000090608D43968090605D43968090602D4F8
:100F000039680906F3D54F21B9813968090608D433
:100F10003968090605D43968090602D43968090612
:100F2000F3D54721B9813A68120608D43A68120607
:100F300005D43A68120602D43A681206F3D5B9818C
:100F40003A68120608D43A68120605D43A681206BE
:100F500002D43A681206F3D5B8813868000608D47E
:100F60003868000605D43868000602D438680006E0
:100F7000F3D54920B8813868000608D438680006DF
:100F800005D43868000602D438680006F3D54E2030
:100F9000B8813868000608D43868000605D4386877
:100FA000000602D438680006F3D5B9813868000617
:100FB00000D5ACE53868000600D5A8E5386800061D
:100FC00000D5A4E538680006F0D5A0E5EA310008B0
:100FD000140800483868000608D43868000605D4AC
:100FE0003868000602D438680006F3D50A23BB81AE
:100FF0003868000608D43868000605D4386800064A
:1010000002D438680006F3D5BB813868000608D4DE
:101010003868000605D43868000602D4386800062F
:10102000F3D50A98B8813868000608D438680006F5
:1010300005D43868000602D438680006F3D572215A
:10104000B9813868000608D43868000605D43868C5
:10105000000602D438680006F3D5B9813868000666
:1010600008D43868000605D43868000602D4386809
:101070000006F3D50B98B8813868000608D43868A4
:10108000000605D43868000602D438680006F3D597
:10109000B9813868000608D43868000605D4386875
:1010A000000602D438680006F3D53A20B8813868C3
:1010B000000608D43868000605D43868000602D453
:1010C00038680006F3D52020B8813A68120608D4A3
:1010D0003A68120605D43A68120602D43A68120633
:1010E000F3D55522BA813A68120608D43A68120636
:1010F00005D43A68120602D43A681206F3D5BD81C7
:101100003A68120608D43A68120605D43A681206FC
:1011100002D43A681206F3D5B9813968090608D4B1
:101120003968090605D43968090602D43968090600
:10113000F3D56521B9813A68120608D43A681206D7
:1011400005D43A68120602D43A681206F3D5BE8175
:101150003A68120608D43A68120605D43A681206AC
:1011600002D43A681206F3D50B9ABA813A6812068D
:1011700008D43A68120605D43A68120602D43A68CE
:101180001206F3D56722BA813A68120608D43A6883
:10119000120605D43A68120602D43A681206F3D54C
:1011A000BD813A68120608D43A68120605D43A6836
:1011B000120602D43A681206F3D5BC813A681206C8
:1011C00008D43A68120605D43A68120602D43A687E
:1011D0001206F3D57A22BA813A68120608D43A6820
:1011E000120605D43A68120602D43A681206F3D5FC
:1011F000B9813968090608D43968090605D43968FF
:10120000090602D439680906F3D5099ABA81396802
:10121000090608D43968090605D43968090602D4D4
:1012200039680906F3D5B8813868000608D43868EB
:10123000000605D43868000602D438680006F3D5E5
:10124000BE8108993868000608D43868000605D4BD
:101250003868000602D438680006F3D50B98B881C8
:101260003868000608D43868000605D438680006D7
:1012700002D438680006F3D5B9813868000608D46E
:101280003868000605D43868000602D438680006BD
:10129000F3D5B9813868000608D43868000605D44B
:1012A0003868000602D438680006F3D56120B8819A
:1012B0003868000608D43868000605D43868000687
:1012C00002D438680006F3D5BD813868000608D41A
:1012D0003868000605D43868000602D4386800066D
:1012E000F3D5BA813868000608D43868000605D4FA
:1012F0003868000602D438680006F3D52E20B8817D
:101300003868000608D43868000605D43868000636
:1013100002D438680006F3D5BB813868000601D5D1
:10132000FFF7F5FB3868000601D5FFF7F0FB3868DA
:10133000000601D5FFF7EBFB38680006EDD5FFF797
:10134000E6FBD8B2302801D100F09EFE3128AF4B29
:1013500001D100F0BBFF322801D001F0C7F8AC4C3E
:101360002068039D68402060059E3046FEF77AFFA6
:101370002068684020603046FEF774FF20686840AF
:1013800020603046FEF76EFF2068684020603046DF
:10139000FEF768FF2068684020603046FEF762FF75
:1013A0002068684020603046FEF75CFF2068684097
:1013B00020603046FEF756FF2068684020603046C7
:1013C000FEF750FF2068684020603046FEF74AFF75
:1013D0002068684020603046FEF744FF3868000609
:1013E00008D43868000605D43868000602D4386886
:1013F0000006F3D50A20B8813868000608D438689A
:10140000000605D43868000602D438680006F3D513
:101410004720B8813968090608D43968090605D417
:101420003968090602D439680906F3D55221B98111
:101430003968090608D43968090605D439680906E7
:1014400002D439680906F3D50A99B98139680906C1
:1014500008D43968090605D43968090602D4396800
:101460000906F3D50A99B9813968090608D439689B
:10147000090605D43968090602D439680906F3D586
:101480004E21B9813A68120608D43A68120605D48A
:101490003A68120602D43A681206F3D52023BB81BB
:1014A0003A68120608D43A68120605D43A68120659
:1014B00002D43A681206F3D54C22BA813C6824065D
:1014C00008D43C68240605D43C68240602D43C6851
:1014D0002406F3D50A9CBC813C68240608D43C68E9
:1014E000240605D43C68240602D43C682406F3D5BF
:1014F0004424BC813C68240608D43C68240605D4F6
:101500003C68240602D43C682406F3D5BB813B68C2
:101510001B0608D43B681B0605D43B681B0602D497
:101520003B681B06F3D55423BB813B681B0608D4DC
:101530003B681B0605D43B681B0602D43B681B06B0
:10154000F3D54F23BB813B681B0608D43B681B06C1
:1015500005D43B681B0602D43B681B06F3D5B88153
:101560003B681B0608D43B681B0605D43B681B067A
:1015700002D43B681B06F3D5B8813B681B0608D430
:101580003B681B0605D43B681B0602D43B681B0660
:10159000F3D5BA813A68120608D43A68120605D41F
:1015A0003A68120602D43A681206F3D54922BA8183
:1015B0003A68120608D43A68120605D43A68120648
:1015C00002D43A681206F3D5B9813968090608D4FD
:1015D0003968090605D43968090602D4396809064C
:1015E000F3D5B8813868000601D5FFF790FA38685E
:1015F000000601D5FFF78BFA3868000601D5FFF722
:1016000086FA38680006EDD5FFF781FAEA3100085E
:1016100014080048D8B2302801D100F0C9FF3128A1
:1016200001D101F0F3F8322801D001F00CFAB24DEB
:101630002868049E70402860059C2046FEF712FE34
:101640002868704028602046FEF70CFE286870402D
:1016500028602046FEF706FE286870402860204675
:10166000FEF700FE2868704028602046FEF7FAFD6D
:101670002868704028602046FEF7F4FD2868704016
:1016800028602046FEF7EEFD28687040286020465E
:10169000FEF7E8FD2868704028602046FEF7E2FD6E
:1016A0002868704028602046FEF7DCFD3868000698
:1016B00008D43868000605D43868000602D43868B3
:1016C0000006F3D50A20B8813868000608D43868C7
:1016D000000605D43868000602D438680006F3D541
:1016E0004F22BA813868000608D43868000605D44D
:1016F0003868000602D438680006F3D55220B88155
:101700003868000608D43868000605D43868000632
:1017100002D438680006F3D50798B8813868000607
:1017200008D43868000605D43868000602D4386842
:101730000006F3D54E20B8813968090608D4396807
:10174000090605D43968090602D439680906F3D5B3
:101750004721B9813B681B0608D43B681B0605D4AA
:101760003B681B0602D43B681B06F3D50A9BBB8172
:101770003B681B0608D43B681B0605D43B681B0668
:1017800002D43B681B06F3D52024BC813B681B06B2
:1017900008D43B681B0605D43B681B0602D43B6893
:1017A0001B06F3D54C23BB813D682D0608D43D684C
:1017B0002D0605D43D682D0602D43D682D06F3D5CF
:1017C0000A9DBD813D682D0608D43D682D0605D4CF
:1017D0003D682D0602D43D682D06F3D54425BD8114
:1017E0003D682D0608D43D682D0605D43D682D06BC
:1017F00002D43D682D06F3D5BC813C68240608D48C
:101800003C68240605D43C68240602D43C682406BF
:10181000F3D55424BC813C68240608D43C682406D3
:1018200005D43C68240602D43C682406F3D5BA816A
:101830003A68120608D43A68120605D43A681206C5
:1018400002D43A681206F3D5B9813A68120608D470
:101850003A68120605D43A68120602D43A681206AB
:10186000F3D5B9813A68120608D43A68120605D44D
:101870003A68120602D43A681206F3D5BB813A6878
:10188000120608D43A68120605D43A68120602D441
:101890003A681206F3D54922BA813A68120608D48A
:1018A0003A68120605D43A68120602D43A6812065B
:1018B000F3D5B8813868000608D43868000605D426
:1018C0003868000602D438680006F3D5B981386854
:1018D000000601D5FFF71BF93868000601D5FFF7B0
:1018E00016F93868000601D5FFF711F938680006C7
:1018F000EDD5FFF70CF9C04614080048D9B23029DD
:1019000001D101F005F93129A14B01D101F003FA10
:10191000322901D001F0F3FA9E4C2068029D684004
:101920002060059E3046FEF79DFC206868402060E0
:101930003046FEF797FC2068684020603046FEF78E
:1019400091FC2068684020603046FEF78BFC2068E0
:10195000684020603046FEF785FC206868402060C3
:101960003046FEF77FFC2068684020603046FEF776
:1019700079FC2068684020603046FEF773FC2068E0
:10198000684020603046FEF76DFC206868402060AB
:101990003046FEF767FC3868000608D43868000651
:1019A00005D43868000602D438680006F3D50A204A
:1019B000B8813868000608D43868000605D438684D
:1019C000000602D438680006F3D55220B881386882
:1019D000000608D43868000605D43868000602D42A
:1019E00038680006F3D50A98B8813868000608D42C
:1019F0003868000605D43868000602D43868000646
:101A0000F3D54421B9813868000608D43868000647
:101A100005D43868000602D438680006F3D52022C1
:101A2000BA813868000608D43868000605D43868DA
:101A3000000602D438680006F3D54C20B8813B6814
:101A40001B0608D43B681B0605D43B681B0602D462
:101A50003B681B06F3D50A9BBB813B681B0608D479
:101A60003B681B0605D43B681B0602D43B681B067B
:101A7000F3D5B9813968090608D43968090605D44F
:101A80003968090602D439680906F3D5BA8139687C
:101A9000090608D43968090605D43968090602D44C
:101AA00039680906F3D55421B9813968090608D483
:101AB0003968090605D43968090602D43968090667
:101AC000F3D54F21B9813968090608D43968090668
:101AD00005D43968090602D439680906F3D54721C7
:101AE000B9813A68120608D43A68120605D43A68F1
:101AF000120602D43A681206F3D5B9813A68120682
:101B000008D43A68120605D43A68120602D43A6834
:101B10001206F3D5B8813868000608D43868000684
:101B200005D43868000602D438680006F3D5492089
:101B3000B8813868000608D43868000605D43868CB
:101B4000000602D438680006F3D54E20B881386804
:101B5000000608D43868000605D43868000602D4A8
:101B600038680006F3D5B9813868000601D5FEF75C
:101B7000CEFF3868000601D5FEF7C9FF38680006B9
:101B800001D5FEF7C4FF38680006EDD5FEF7BFFFAC
:101B9000EA310008140800480698C005874A5168D1
:101BA000014351603868000608D43868000605D43F
:101BB0003868000602D438680006F3D50A20B881D8
:101BC0003868000608D43868000605D4386800066E
:101BD00002D438680006F3D54220B8813868000680
:101BE00008D43868000605D43868000602D438687E
:101BF0000006F3D54C22BA813868000608D438684C
:101C0000000605D43868000602D438680006F3D50B
:101C10005521B9813868000608D43868000605D413
:101C20003868000602D438680006F3D50A98B881EF
:101C30003868000608D43868000605D438680006FD
:101C400002D438680006F3D52020B8813B681B0613
:101C500008D43B681B0605D43B681B0602D43B68CE
:101C60001B06F3D5BA813A68120608D43A68120600
:101C700005D43A68120602D43A681206F3D50A9AD5
:101C8000BA813A68120608D43A68120605D43A684E
:101C9000120602D43A681206F3D54422BA813A6891
:101CA000120608D43A68120605D43A68120602D41D
:101CB0003A681206F3D5B8813A68120608D43A6831
:101CC000120605D43A68120602D43A681206F3D511
:101CD0005422BA813A68120608D43A68120605D42A
:101CE0003A68120602D43A681206F3D5B981396807
:101CF000090608D43968090605D43968090602D4EA
:101D000039680906F3D55221B9813968090608D422
:101D10003968090605D43968090602D43968090604
:101D2000F3D54E21B9813968090608D43968090606
:101D300005D43968090602D439680906F3D5B88193
:101D40003868000608D43868000605D438680006EC
:101D500002D438680006F3D54F20B88138680006F1
:101D600008D43868000605D43868000602D43868FC
:101D70000006F3D54620B8813968090608D43968C9
:101D8000090605D43968090602D439680906F3D56D
:101D9000B8813868000601D5FEF7B9FE386800063C
:101DA00001D5FEF7B4FE3868000601D5FEF7AFFE98
:101DB00038680006EDD5FEF7AAFEC04614080048B4
:101DC000B0494868019A104348603868000608D452
:101DD0003868000605D43868000602D43868000662
:101DE000F3D50A20B8813868000608D438680006A0
:101DF00005D43868000602D438680006F3D54220BE
:101E0000B8813868000608D43868000605D43868F8
:101E1000000602D438680006F3D54C22BA8138682F
:101E2000000608D43868000605D43868000602D4D5
:101E300038680006F3D55521B9813868000608D402
:101E40003868000605D43868000602D438680006F1
:101E5000F3D50A98B8813868000608D438680006B7
:101E600005D43868000602D438680006F3D520206F
:101E7000B8813B681B0608D43B681B0605D43B6849
:101E80001B0602D43B681B06F3D5BA813A681206DA
:101E900008D43A68120605D43A68120602D43A68A1
:101EA0001206F3D50A9ABA813A68120608D43A683B
:101EB000120605D43A68120602D43A681206F3D51F
:101EC0004422BA813A68120608D43A68120605D448
:101ED0003A68120602D43A681206F3D5B8813A6815
:101EE000120608D43A68120605D43A68120602D4DB
:101EF0003A681206F3D55422BA813A68120608D419
:101F00003A68120605D43A68120602D43A681206F4
:101F1000F3D5B9813968090608D43968090605D4AA
:101F20003968090602D439680906F3D55221B98106
:101F30003968090608D43968090605D439680906DC
:101F400002D439680906F3D54E21B9813A681206E0
:101F500008D43A68120605D43A68120602D43A68E0
:101F60001206F3D5B8813868000608D43868000630
:101F700005D43868000602D438680006F3D54F202F
:101F8000B8813868000608D43868000605D4386877
:101F9000000602D438680006F3D5B9813868000617
:101FA00001D5FEF7B4FD3868000601D5FEF7AFFD98
:101FB0003868000601D5FEF7AAFD38680006EDD5A1
:101FC000FEF7A5FD0A21184608E0B9818179801D38
:101FD0001A462432904201D1FEF79BFD3A68120660
:101FE00008D43A68120605D43A68120602D43A6850
:101FF0001206F3D5B98141783A68120608D43A68D6
:10200000120605D43A68120602D43A681206F3D5CD
:10201000B98181783A68120608D43A68120605D464
:102020003A68120602D43A681206F3D5B981C1782B
:102030003A68120608D43A68120605D43A681206BD
:1020400002D43A681206F3D5B98101793A681206CA
:1020500008D43A68120605D43A68120602D43A68DF
:102060001206F3D5B98141793A681206ADD43A68BF
:102070001206AAD43A681206A7D43A681206F3D513
:10208000A3E7C04614080048069840068E4A5168E7
:10209000014351603868000608D43868000605D44A
:1020A0003868000602D438680006F3D50A20B881E3
:1020B0003868000608D43868000605D43868000679
:1020C00002D438680006F3D54720B8813868000686
:1020D00008D43868000605D43868000602D4386889
:1020E0000006F3D55220B8813968090608D439684A
:1020F000090605D43968090602D439680906F3D5FA
:102100000A99B9813968090608D43968090605D4DD
:102110003968090602D439680906F3D50A99B981E4
:102120003968090608D43968090605D439680906EA
:1021300002D439680906F3D54E21B9813A681206EE
:1021400008D43A68120605D43A68120602D43A68EE
:102150001206F3D52022BA813B681B0608D43B68DF
:102160001B0605D43B681B0602D43B681B06F3D54F
:102170004C23BB813B681B0608D43B681B0605D477
:102180003B681B0602D43B681B06F3D50A9BBB8148
:102190003B681B0608D43B681B0605D43B681B063E
:1021A00002D43B681B06F3D54423BB813B681B0666
:1021B00008D43B681B0605D43B681B0602D43B6869
:1021C0001B06F3D5BA813B681B0608D43B681B0687
:1021D00005D43B681B0602D43B681B06F3D5542389
:1021E000BB813B681B0608D43B681B0605D43B68D3
:1021F0001B0602D43B681B06F3D55523BB813B6805
:102200001B0608D43B681B0605D43B681B0602D49A
:102210003B681B06F3D5B8813868000608D43868D7
:10222000000605D43868000602D438680006F3D5E5
:10223000B9813868000608D43868000605D43868C3
:10224000000602D438680006F3D5BA813868000663
:1022500008D43868000605D43868000602D4386807
:102260000006F3D54F20B8813868000608D43868D6
:10227000000605D43868000602D438680006F3D595
:102280004620B8813968090608D43968090605D49A
:102290003968090602D439680906F3D5B881386867
:1022A000000601D5FEF733FC3868000601D5FEF7BD
:1022B0002EFC3868000601D5FEF729FC38680006B8
:1022C000EDD5FEF724FCC04614080048B74948681D
:1022D000039A104348603868000608D4386800063E
:1022E00005D43868000602D438680006F3D50A2001
:1022F000B8813868000608D43868000605D4386804
:10230000000602D438680006F3D54720B881386843
:10231000000608D43868000605D43868000602D4E0
:1023200038680006F3D55221B9813868000608D410
:102330003868000605D43868000602D438680006FC
:10234000F3D50A98B8813868000608D438680006C2
:1023500005D43868000602D438680006F3D50A9818
:10236000B8813868000608D43868000605D4386893
:10237000000602D438680006F3D54E20B8813A68CA
:10238000120608D43A68120605D43A68120602D436
:102390003A681206F3D52022BA813B681B0608D49E
:1023A0003B681B0605D43B681B0602D43B681B0632
:1023B000F3D54C23BB813B681B0608D43B681B0646
:1023C00005D43B681B0602D43B681B06F3D50A9B69
:1023D000BB813B681B0608D43B681B0605D43B68E1
:1023E0001B0602D43B681B06F3D54423BB813B6824
:1023F0001B0608D43B681B0605D43B681B0602D4A9
:102400003B681B06F3D5BA813B681B0608D43B68C2
:102410001B0605D43B681B0602D43B681B06F3D59C
:102420005423BB813B681B0608D43B681B0605D4BC
:102430003B681B0602D43B681B06F3D55523BB81C2
:102440003B681B0608D43B681B0605D43B681B068B
:1024500002D43B681B06F3D5B9813968090608D454
:102460003968090605D43968090602D439680906AD
:10247000F3D5B8813968090608D43968090605D446
:102480003968090602D439680906F3D5BA81396872
:10249000090608D43968090605D43968090602D442
:1024A00039680906F3D54F21B9813968090608D47E
:1024B0003968090605D43968090602D4396809065D
:1024C000F3D5B8813868000601D5FEF720FB3868DF
:1024D000000601D5FEF71BFB3868000601D5FEF7A4
:1024E00016FB38680006EDD5FEF711FB0A211846E9
:1024F00008E0B9818179801D1A462432904201D1C9
:10250000FEF707FB3A68120608D43A68120605D4AB
:102510003A68120602D43A681206F3D5B9814178B6
:102520003A68120608D43A68120605D43A681206C8
:1025300002D43A681206F3D5B98181783A68120656
:1025400008D43A68120605D43A68120602D43A68EA
:102550001206F3D5B981C1783A68120608D43A68F0
:10256000120605D43A68120602D43A681206F3D568
:10257000B98101793A68120608D43A68120605D47E
:102580003A68120602D43A681206F3D5B981417945
:102590003A681206ADD43A681206AAD43A6812060E
:1025A000A7D43A681206F3D5A3E7C046140800483A
:1025B00006980006944A5168014351603868000645
:1025C00008D43868000605D43868000602D4386894
:1025D0000006F3D50A20B8813868000608D43868A8
:1025E000000605D43868000602D438680006F3D522
:1025F0004F20B8813968090608D43968090605D41E
:102600003968090602D439680906F3D55221B9811F
:102610003A68120608D43A68120605D43A681206D7
:1026200002D43A681206F3D5079ABA813A681206BC
:1026300008D43A68120605D43A68120602D43A68F9
:102640001206F3D54E22BA813B681B0608D43B68BC
:102650001B0605D43B681B0602D43B681B06F3D55A
:102660004723BB813B681B0608D43B681B0605D487
:102670003B681B0602D43B681B06F3D50A9BBB8153
:102680003B681B0608D43B681B0605D43B681B0649
:1026900002D43B681B06F3D52023BB813C6824068B
:1026A00008D43C68240605D43C68240602D43C685F
:1026B0002406F3D54C24BC813C68240608D43C682D
:1026C000240605D43C68240602D43C682406F3D5CD
:1026D0000A9CBC813C68240608D43C68240605D4C6
:1026E0003C68240602D43C682406F3D54424BC810B
:1026F0003C68240608D43C68240605D43C682406BB
:1027000002D43C682406F3D5BB813C68240608D477
:102710003C68240605D43C68240602D43C682406A0
:10272000F3D55424BC813C68240608D43C682406B4
:1027300005D43C68240602D43C682406F3D555240D
:10274000BC813C68240608D43C68240605D43C6857
:10275000240602D43C682406F3D5B98139680906F9
:1027600008D43968090605D43968090602D43968DD
:102770000906F3D5BA813968090608D4396809060B
:1027800005D43968090602D439680906F3D5BB8136
:102790003968090608D43968090605D43968090674
:1027A00002D439680906F3D5B8813868000608D420
:1027B0003868000605D43868000602D43868000678
:1027C000F3D54620B8813968090608D43968090666
:1027D00005D43968090602D439680906F3D5B881E9
:1027E0003868000601D5FEF792F93868000601D571
:1027F000FEF78DF93868000601D5FEF788F93868CC
:102800000006EDD5FEF783F914080048BE49486874
:10281000049A104348603868000608D438680006F7
:1028200005D43868000602D438680006F3D50A20BB
:10283000B8813868000608D43868000605D43868BE
:10284000000602D438680006F3D54F20B8813968F5
:10285000090608D43968090605D43968090602D47E
:1028600039680906F3D55222BA813968090608D4B5
:102870003968090605D43968090602D43968090699
:10288000F3D50799B9813968090608D4396809066A
:1028900005D43968090602D439680906F3D54E21F2
:1028A000B9813B681B0608D43B681B0605D43B680E
:1028B0001B0602D43B681B06F3D54723BB813B684C
:1028C0001B0608D43B681B0605D43B681B0602D4D4
:1028D0003B681B06F3D50A9BBB813B681B0608D4EB
:1028E0003B681B0605D43B681B0602D43B681B06ED
:1028F000F3D52023BB813C68240608D43C68240619
:1029000005D43C68240602D43C682406F3D54C2444
:10291000BC813C68240608D43C68240605D43C6885
:10292000240602D43C682406F3D50A9CBC813C688A
:10293000240608D43C68240605D43C68240602D446
:102940003C682406F3D54424BC813C68240608D4A2
:102950003C68240605D43C68240602D43C6824065E
:10296000F3D5BB813C68240608D43C68240605D412
:102970003C68240602D43C682406F3D55424BC8168
:102980003C68240608D43C68240605D43C68240628
:1029900002D43C682406F3D55524BC813C68240647
:1029A00008D43C68240605D43C68240602D43C685C
:1029B0002406F3D5BA813A68120608D43A6812069A
:1029C00005D43A68120602D43A681206F3D5B981E2
:1029D0003A68120608D43A68120605D43A68120614
:1029E00002D43A681206F3D5BB813A68120608D4BD
:1029F0003A68120605D43A68120602D43A681206FA
:102A0000F3D5B8813868000608D43868000605D4C4
:102A10003868000602D438680006F3D5B9813868F2
:102A2000000601D5FEF773F83868000601D5FEF7F9
:102A30006EF83868000601D5FEF769F838680006B8
:102A4000EDD5FEF764F80A21304B184608E0B9814D
:102A50008179801D1A462432904201D1FEF759F83F
:102A60003A68120608D43A68120605D43A68120683
:102A700002D43A681206F3D5B98141783A68120651
:102A800008D43A68120605D43A68120602D43A68A5
:102A90001206F3D5B98181783A68120608D43A68EB
:102AA000120605D43A68120602D43A681206F3D523
:102AB000B981C1783A68120608D43A68120605D47A
:102AC0003A68120602D43A681206F3D5B981017940
:102AD0003A68120608D43A68120605D43A68120613
:102AE00002D43A681206F3D5B98141793A681206E0
:102AF000ADD43A681206AAD43A681206A7D43A6846
:102B00001206F3D5A3E7C04614080048EA310008CE
:102B100006988005FB4A51680143516038680006F9
:102B200008D43868000605D43868000602D438682E
:102B30000006F3D50A20B8813868000608D4386842
:102B4000000605D43868000602D438680006F3D5BC
:102B50005220B8813968090608D43968090605D4B5
:102B60003968090602D439680906F3D50A99B9818A
:102B70003968090608D43968090605D43968090690
:102B800002D439680906F3D54422BA8139680906A6
:102B900008D43968090605D43968090602D43968A9
:102BA0000906F3D52021B9813B681B0608D43B6890
:102BB0001B0605D43B681B0602D43B681B06F3D5F5
:102BC0004C23BB813B681B0608D43B681B0605D41D
:102BD0003B681B0602D43B681B06F3D50A9BBB81EE
:102BE0003B681B0608D43B681B0605D43B681B06E4
:102BF00002D43B681B06F3D5BA813A68120608D4A2
:102C00003A68120605D43A68120602D43A681206E7
:102C1000F3D5B9813A68120608D43A68120605D489
:102C20003A68120602D43A681206F3D55422BA81E1
:102C30003A68120608D43A68120605D43A681206B1
:102C400002D43A681206F3D55522BA813A681206C0
:102C500008D43A68120605D43A68120602D43A68D3
:102C60001206F3D5B8813868000608D43868000623
:102C700005D43868000602D438680006F3D54E2023
:102C8000B8813868000608D43868000605D438686A
:102C9000000602D438680006F3D5B981386800060A
:102CA00008D43868000605D43868000602D43868AD
:102CB0000006F3D54F20B8813868000608D438687C
:102CC000000605D43868000602D438680006F3D53B
:102CD0004620B8813968090608D43968090605D440
:102CE0003968090602D439680906F3D5B88138680D
:102CF000000601D5FDF70BFF3868000601D5FDF78A
:102D000006FF3868000601D5FDF701FF38680006A8
:102D1000EDD5FDF7FCFEAA494868029A10434860C9
:102D20003868000608D43868000605D438680006FC
:102D300002D438680006F3D50A20B8813868000646
:102D400008D43868000605D43868000602D438680C
:102D50000006F3D55220B8813968090608D43968CD
:102D6000090605D43968090602D439680906F3D57D
:102D70000A99B9813968090608D43968090605D461
:102D80003968090602D439680906F3D54422BA81A4
:102D90003968090608D43968090605D4396809066E
:102DA00002D439680906F3D52021B9813B681B0696
:102DB00008D43B681B0605D43B681B0602D43B685D
:102DC0001B06F3D54C23BB813B681B0608D43B682C
:102DD0001B0605D43B681B0602D43B681B06F3D5D3
:102DE0000A9BBB813B681B0608D43B681B0605D4C5
:102DF0003B681B0602D43B681B06F3D5BA813A68D0
:102E0000120608D43A68120605D43A68120602D4AB
:102E10003A681206F3D5B9813A68120608D43A68BE
:102E2000120605D43A68120602D43A681206F3D59F
:102E30005422BA813A68120608D43A68120605D4B8
:102E40003A68120602D43A681206F3D55522BA81BE
:102E50003A68120608D43A68120605D43A6812068F
:102E600002D43A681206F3D5B8813868000608D44F
:102E70003868000605D43868000602D438680006B1
:102E8000F3D54E20B8813A68120608D43A68120683
:102E900005D43A68120602D43A681206F3D5B9810D
:102EA0003968090608D43968090605D4396809065D
:102EB00002D439680906F3D54F21B981396809066A
:102EC00008D43968090605D43968090602D4396876
:102ED0000906F3D5B8813868000601D5FDF717FE5D
:102EE0003868000601D5FDF712FE3868000601D5E6
:102EF000FDF70DFE38680006EDD5FDF708FE194612
:102F00000BE0C04614080048B8818879891D1A462C
:102F10002432914201D1FDF7FCFD3A68120608D433
:102F20003A68120605D43A68120602D43A681206C4
:102F3000F3D5B88148783A68120608D43A68120680
:102F400005D43A68120602D43A681206F3D5B8815D
:102F500088783A68120608D43A68120605D43A68A6
:102F6000120602D43A681206F3D5B881C8783A68D6
:102F7000120608D43A68120605D43A68120602D43A
:102F80003A681206F3D5B88108793A68120608D46F
:102F90003A68120605D43A68120602D43A68120654
:102FA000F3D5B88148793A681206ADD43A6812066A
:102FB000AAD43A681206A7D43A681206F3D5A3E752
:102FC0001408004843088B421AD3002203098B429D
:102FD00079D3030A8B425ED3030B8B4242D3030C9B
:102FE0008B4227D30902FF2212BA030C8B4202D371
:102FF0001212090203D0030B8B4233D31AE0D3E041
:10300000411A8041401C704703460B4371D443086A
:103010008B42F5D3002203098B4254D3030A8B421F
:1030200039D3030B8B421DD3030C8B4202D394463E
:103030006EE0090AC30B8B4201D3CB03C01A524185
:10304000830B8B4201D38B03C01A5241430B8B423B
:1030500001D34B03C01A5241030B8B4201D30B0324
:10306000C01A5241C30A8B4201D3CB02C01A52414B
:10307000830A8B4201D38B02C01A5241430A8B420E
:1030800001D34B02C01A5241030A8B4201D30B02F7
:10309000C01A5241CDD2C3098B4201D3CB01C01A11
:1030A000524183098B4201D38B01C01A524143091B
:1030B0008B4201D34B01C01A524103098B4201D309
:1030C0000B01C01A5241C3088B4201D3CB00C01A76
:1030D000524183088B4201D38B00C01A52414308EE
:1030E0008B4201D34B00C01A5241411A5241100089
:1030F0007047CA0F00D04942031000D340425340EA
:1031000000229C4603098B422DD3030A8B4212D323
:103110008901FC2212BA030A8B420CD38901921155
:103120008B4208D3890192118B4204D3890137D095
:10313000921100E08909C3098B4201D3CB01C01A67
:10314000524183098B4201D38B01C01A524143097A
:103150008B4201D34B01C01A524103098B4201D368
:103160000B01C01A5241C3088B4201D3CB00C01AD5
:10317000524183088B4201D38B00C01A5241D9D2ED
:1031800043088B4201D34B00C01A5241411A00D26E
:1031900001465241104663465B1000D340427047DF
:1031A00063465B1000D3404201B50021004201D0CC
:1031B000C9430846C046C04602BD000000000000EA
:1031C00000000102030406070809020304050607BC
:1031D00008090A0B0C0D0E0F10100102030405065E
:1031E0000708090A0B0C0D0E0F100A4572726F7258
:1031F0003A20556E7265636F676E6973656420610E
:103200006374696F6E206F66204C45442E0A00007F
:103210003032000800000020100000001C010008EF
:103220004032000810000020680600003C01000841
:10323000010000000400000000127A0000000000FD
:04000005080000C12E
:00000001FF
